{
  "_format": "hh-sol-artifact-1",
  "contractName": "WavePortal",
  "sourceName": "contracts/WavePortal.sol",
  "abi": [
    {
      "inputs": [],
      "stateMutability": "payable",
      "type": "constructor"
    },
    {
      "anonymous": false,
      "inputs": [
        {
          "indexed": true,
          "internalType": "address",
          "name": "from",
          "type": "address"
        },
        {
          "indexed": false,
          "internalType": "uint256",
          "name": "timestamp",
          "type": "uint256"
        },
        {
          "indexed": false,
          "internalType": "string",
          "name": "message",
          "type": "string"
        }
      ],
      "name": "NewWave",
      "type": "event"
    },
    {
      "inputs": [],
      "name": "getTotalWaves",
      "outputs": [
        {
          "internalType": "uint256",
          "name": "",
          "type": "uint256"
        }
      ],
      "stateMutability": "view",
      "type": "function"
    },
    {
      "inputs": [],
      "name": "getWavesList",
      "outputs": [
        {
          "components": [
            {
              "internalType": "address",
              "name": "addr",
              "type": "address"
            },
            {
              "internalType": "string",
              "name": "msg",
              "type": "string"
            },
            {
              "internalType": "uint256",
              "name": "timestamp",
              "type": "uint256"
            }
          ],
          "internalType": "struct WavePortal.Wave[]",
          "name": "",
          "type": "tuple[]"
        }
      ],
      "stateMutability": "view",
      "type": "function"
    },
    {
      "inputs": [
        {
          "internalType": "address",
          "name": "",
          "type": "address"
        }
      ],
      "name": "lastWavedAt",
      "outputs": [
        {
          "internalType": "uint256",
          "name": "",
          "type": "uint256"
        }
      ],
      "stateMutability": "view",
      "type": "function"
    },
    {
      "inputs": [
        {
          "internalType": "string",
          "name": "waveMsg",
          "type": "string"
        }
      ],
      "name": "wave",
      "outputs": [],
      "stateMutability": "nonpayable",
      "type": "function"
    }
  ],
  "bytecode": "0x60806040526200003360405180606001604052806025815260200162001520602591396200005b60201b620006881760201c565b60644442620000439190620001a8565b6200004f919062000245565b600181905550620002ec565b620000fb8160405160240162000072919062000168565b6040516020818303038152906040527f41304fac000000000000000000000000000000000000000000000000000000007bffffffffffffffffffffffffffffffffffffffffffffffffffffffff19166020820180517bffffffffffffffffffffffffffffffffffffffffffffffffffffffff8381831617835250505050620000fe60201b60201c565b50565b60008151905060006a636f6e736f6c652e6c6f679050602083016000808483855afa5050505050565b600062000134826200018c565b62000140818562000197565b9350620001528185602086016200020f565b6200015d81620002db565b840191505092915050565b6000602082019050818103600083015262000184818462000127565b905092915050565b600081519050919050565b600082825260208201905092915050565b6000620001b58262000205565b9150620001c28362000205565b9250827fffffffffffffffffffffffffffffffffffffffffffffffffffffffffffffffff03821115620001fa57620001f96200027d565b5b828201905092915050565b6000819050919050565b60005b838110156200022f57808201518184015260208101905062000212565b838111156200023f576000848401525b50505050565b6000620002528262000205565b91506200025f8362000205565b925082620002725762000271620002ac565b5b828206905092915050565b7f4e487b7100000000000000000000000000000000000000000000000000000000600052601160045260246000fd5b7f4e487b7100000000000000000000000000000000000000000000000000000000600052601260045260246000fd5b6000601f19601f8301169050919050565b61122480620002fc6000396000f3fe608060405234801561001057600080fd5b506004361061004c5760003560e01c8063314239a014610051578063449d46c01461006f5780639a2cdc081461008b578063a42a4663146100a9575b600080fd5b6100596100d9565b6040516100669190610d6d565b60405180910390f35b61008960048036038101906100849190610a6a565b61022a565b005b610093610625565b6040516100a09190610eb6565b60405180910390f35b6100c360048036038101906100be9190610a41565b610670565b6040516100d09190610eb6565b60405180910390f35b60606002805480602002602001604051908101604052809291908181526020016000905b8282101561022157838290600052602060002090600302016040518060600160405290816000820160009054906101000a900473ffffffffffffffffffffffffffffffffffffffff1673ffffffffffffffffffffffffffffffffffffffff1673ffffffffffffffffffffffffffffffffffffffff168152602001600182018054610186906110a7565b80601f01602080910402602001604051908101604052809291908181526020018280546101b2906110a7565b80156101ff5780601f106101d4576101008083540402835291602001916101ff565b820191906000526020600020905b8154815290600101906020018083116101e257829003601f168201915b50505050508152602001600282015481525050815260200190600101906100fd565b50505050905090565b42601e600360003373ffffffffffffffffffffffffffffffffffffffff1673ffffffffffffffffffffffffffffffffffffffff168152602001908152602001600020546102779190610fd3565b106102b7576040517f08c379a00000000000000000000000000000000000000000000000000000000081526004016102ae90610e96565b60405180910390fd5b42600360003373ffffffffffffffffffffffffffffffffffffffff1673ffffffffffffffffffffffffffffffffffffffff16815260200190815260200160002081905550600260405180606001604052803373ffffffffffffffffffffffffffffffffffffffff16815260200183815260200142815250908060018154018082558091505060019003906000526020600020906003020160009091909190915060008201518160000160006101000a81548173ffffffffffffffffffffffffffffffffffffffff021916908373ffffffffffffffffffffffffffffffffffffffff16021790555060208201518160010190805190602001906103ba929190610921565b5060408201518160020155505060016000808282546103d99190610fd3565b925050819055506104206040518060400160405280600b81526020017f257320736169643a2025730000000000000000000000000000000000000000008152503383610721565b606460015442446104319190610fd3565b61043b9190610fd3565b61044591906110d9565b60018190555061048c6040518060400160405280601681526020017f52616e646f6d20232067656e6572617465643a202564000000000000000000008152506001546107c0565b6032600154116105d2576104d56040518060400160405280600781526020017f257320776f6e21000000000000000000000000000000000000000000000000008152503361085c565b6000655af3107a4000905047811115610523576040517f08c379a000000000000000000000000000000000000000000000000000000000815260040161051a90610e56565b60405180910390fd5b60003373ffffffffffffffffffffffffffffffffffffffff168260405161054990610d58565b60006040518083038185875af1925050503d8060008114610586576040519150601f19603f3d011682016040523d82523d6000602084013e61058b565b606091505b50509050806105cf576040517f08c379a00000000000000000000000000000000000000000000000000000000081526004016105c690610e76565b60405180910390fd5b50505b3373ffffffffffffffffffffffffffffffffffffffff167f5f7e16dc676677766a70e9c5628aa6c54ddb8b6e5188e2ae1e1f17f1ffbea716428360405161061a929190610ed1565b60405180910390a250565b60006106686040518060400160405280601781526020017f5765206861766520256420746f74616c207761766573210000000000000000008152506000546107c0565b600054905090565b60036020528060005260406000206000915090505481565b61071e8160405160240161069c9190610d8f565b6040516020818303038152906040527f41304fac000000000000000000000000000000000000000000000000000000007bffffffffffffffffffffffffffffffffffffffffffffffffffffffff19166020820180517bffffffffffffffffffffffffffffffffffffffffffffffffffffffff83818316178352505050506108f8565b50565b6107bb83838360405160240161073993929190610de1565b6040516020818303038152906040527fe0e9ad4f000000000000000000000000000000000000000000000000000000007bffffffffffffffffffffffffffffffffffffffffffffffffffffffff19166020820180517bffffffffffffffffffffffffffffffffffffffffffffffffffffffff83818316178352505050506108f8565b505050565b61085882826040516024016107d6929190610e26565b6040516020818303038152906040527f9710a9d0000000000000000000000000000000000000000000000000000000007bffffffffffffffffffffffffffffffffffffffffffffffffffffffff19166020820180517bffffffffffffffffffffffffffffffffffffffffffffffffffffffff83818316178352505050506108f8565b5050565b6108f48282604051602401610872929190610db1565b6040516020818303038152906040527f319af333000000000000000000000000000000000000000000000000000000007bffffffffffffffffffffffffffffffffffffffffffffffffffffffff19166020820180517bffffffffffffffffffffffffffffffffffffffffffffffffffffffff83818316178352505050506108f8565b5050565b60008151905060006a636f6e736f6c652e6c6f679050602083016000808483855afa5050505050565b82805461092d906110a7565b90600052602060002090601f01602090048101928261094f5760008555610996565b82601f1061096857805160ff1916838001178555610996565b82800160010185558215610996579182015b8281111561099557825182559160200191906001019061097a565b5b5090506109a391906109a7565b5090565b5b808211156109c05760008160009055506001016109a8565b5090565b60006109d76109d284610f32565b610f01565b9050828152602081018484840111156109ef57600080fd5b6109fa848285611065565b509392505050565b600081359050610a11816111d7565b92915050565b600082601f830112610a2857600080fd5b8135610a388482602086016109c4565b91505092915050565b600060208284031215610a5357600080fd5b6000610a6184828501610a02565b91505092915050565b600060208284031215610a7c57600080fd5b600082013567ffffffffffffffff811115610a9657600080fd5b610aa284828501610a17565b91505092915050565b6000610ab78383610cea565b905092915050565b610ac881611029565b82525050565b610ad781611029565b82525050565b6000610ae882610f72565b610af28185610f95565b935083602082028501610b0485610f62565b8060005b85811015610b405784840389528151610b218582610aab565b9450610b2c83610f88565b925060208a01995050600181019050610b08565b50829750879550505050505092915050565b6000610b5d82610f7d565b610b678185610fb1565b9350610b77818560208601611074565b610b80816111c6565b840191505092915050565b6000610b9682610f7d565b610ba08185610fc2565b9350610bb0818560208601611074565b610bb9816111c6565b840191505092915050565b6000610bd1603483610fc2565b91507f547279696e6720746f207769746864726177206d6f7265206d6f6e657920746860008301527f616e2074686520636f6e7472616374206861732e0000000000000000000000006020830152604082019050919050565b6000610c37602783610fc2565b91507f4661696c656420746f207769746864726177206d6f6e65792066726f6d20636f60008301527f6e74726163742e000000000000000000000000000000000000000000000000006020830152604082019050919050565b6000610c9d600883610fc2565b91507f57616974203330730000000000000000000000000000000000000000000000006000830152602082019050919050565b6000610cdd600083610fa6565b9150600082019050919050565b6000606083016000830151610d026000860182610abf565b5060208301518482036020860152610d1a8282610b52565b9150506040830151610d2f6040860182610d3a565b508091505092915050565b610d438161105b565b82525050565b610d528161105b565b82525050565b6000610d6382610cd0565b9150819050919050565b60006020820190508181036000830152610d878184610add565b905092915050565b60006020820190508181036000830152610da98184610b8b565b905092915050565b60006040820190508181036000830152610dcb8185610b8b565b9050610dda6020830184610ace565b9392505050565b60006060820190508181036000830152610dfb8186610b8b565b9050610e0a6020830185610ace565b8181036040830152610e1c8184610b8b565b9050949350505050565b60006040820190508181036000830152610e408185610b8b565b9050610e4f6020830184610d49565b9392505050565b60006020820190508181036000830152610e6f81610bc4565b9050919050565b60006020820190508181036000830152610e8f81610c2a565b9050919050565b60006020820190508181036000830152610eaf81610c90565b9050919050565b6000602082019050610ecb6000830184610d49565b92915050565b6000604082019050610ee66000830185610d49565b8181036020830152610ef88184610b8b565b90509392505050565b6000604051905081810181811067ffffffffffffffff82111715610f2857610f27611197565b5b8060405250919050565b600067ffffffffffffffff821115610f4d57610f4c611197565b5b601f19601f8301169050602081019050919050565b6000819050602082019050919050565b600081519050919050565b600081519050919050565b6000602082019050919050565b600082825260208201905092915050565b600081905092915050565b600082825260208201905092915050565b600082825260208201905092915050565b6000610fde8261105b565b9150610fe98361105b565b9250827fffffffffffffffffffffffffffffffffffffffffffffffffffffffffffffffff0382111561101e5761101d61110a565b5b828201905092915050565b60006110348261103b565b9050919050565b600073ffffffffffffffffffffffffffffffffffffffff82169050919050565b6000819050919050565b82818337600083830152505050565b60005b83811015611092578082015181840152602081019050611077565b838111156110a1576000848401525b50505050565b600060028204905060018216806110bf57607f821691505b602082108114156110d3576110d2611168565b5b50919050565b60006110e48261105b565b91506110ef8361105b565b9250826110ff576110fe611139565b5b828206905092915050565b7f4e487b7100000000000000000000000000000000000000000000000000000000600052601160045260246000fd5b7f4e487b7100000000000000000000000000000000000000000000000000000000600052601260045260246000fd5b7f4e487b7100000000000000000000000000000000000000000000000000000000600052602260045260246000fd5b7f4e487b7100000000000000000000000000000000000000000000000000000000600052604160045260246000fd5b6000601f19601f8301169050919050565b6111e081611029565b81146111eb57600080fd5b5056fea2646970667358221220141a09a97f2c02ef47794bfaa5ea095726b043f185be75bf85fa94d4f5e3ac1b64736f6c63430008000033596f20796f2c204920616d206120636f6e747261637420616e64204920616d20736d617274",
  "linkReferences": {},
  "deployedLinkReferences": {}
}